:100000000C9494120C94C5120C94C5120C94C51245
:100010000C94C5120C94C5120C94C5120C94C51204
:100020000C94C5120C94C5120C94C5120C94C512F4
:100030000C94C5120C94C5120C94C5120C94C512E4
:100040000C94C5120C94DC460C94C5120C94C51289
:100050000C94C5120C94C5120C94E9310C941B310C
:100060000C94C5120C94E0B60C94D6B60C94C51240
:100070000C94C5120C94C5120C94C5120C94C512A4
:100080000C9444810C94C5120C94C5120C94C512A6
:100090000C94C5120C94C5120C94C5120C94C51284
:1000A0000C94C5120C94C5120C9416810C94C512B4
:1000B0000C94C5120C94C5120C94C5120C94C51264
:1000C0000C94C5120C94C5120C94C5120C94C51254
:1000D0000C94C5120C94C5120C94C5120C94C51244
:1000E0000C94C512084AD73B3BCE016E84BCBFFDC1
:1000F000C12F3D6C74319ABD56833DDA3D00C77FF8
:1001000011BED9E4BB4C3E916BAAAABE0000008090
:100110003F05A84CCDB2D44EB93836A9020C50B91F
:10012000918688083CA6AAAA2ABE000000803F004B
:100130000C941C300C94EF120C947EB70C940013AA
:100140000C9424B70C9486B70C94EE2F0C94DF2FEC
:100150000C942A130C9420130C9482B70C948AB735
:100160000C94FA120C940A300C9418130C947AB76D
:100170000C941C130C9425130C945D300C948EB7C6
:100180000C9492B70C94F82F0C9473B70C943030F5
:100190000C9467300C940E130C9453300C9404138D
:1001A0000C94E5120C940A130C943F300C947130AB
:1001B0000C94EB120C9412130C9426130C9426300E
:1001C0000C94D72F0C9449300C94ACB70C9412308B
:1001D0000C9499B70C94F3120C94A4B70C94E42FDC
:1001E0000C9455B70C94F7120C9464B70C9482B825
:1001F0000C9402304E414E494E495459494E46CD19
:10020000CCCC3D0AD7233C17B7D13877CC2B3295CD
:1002100095E6241FB14F0A000020410000C84200AB
:10022000401C4620BCBE4CCA1B0E5AAEC59D744332
:100230004F4D4D554E49434154494F4E004452593C
:1002400052554E004552524F525300494E464F00B0
:100250004543484F0000009643000096430000C805
:100260004300000000000000000000000045696E2F
:100270007374656C6C2E206765737065692E002938
:100280000A002062797465733B2063726320005317
:10029000657474696E67732053746F726564202887
:1002A00000454550524F4D206461746173697A6511
:1002B000206572726F722E0A00454550524F4D20D4
:1002C00056657273696F6E204572726F7200454594
:1002D00050524F4D20496E646578204572726F729E
:1002E00000454550524F4D20435243204572726F96
:1002F0007200290A002062797465733B206372637F
:1003000020002073746F7265642073657474696E65
:1003100067732072657472696576656420280020B1
:100320002863616C63756C6174656429210A00201F
:10033000213D2000454550524F4D20435243206DF2
:1003400069736D61746368202D202873746F726502
:10035000642920002053697A653A2000496E64655B
:10036000783A2000204D61726C696E3D5638312913
:100370000A00454550524F4D2076657273696F6E85
:10038000206D69736D617463682028454550524F34
:100390004D3D0048617264636F6465642044656626
:1003A00061756C742053657474696E6773204C6F4B
:1003B000616465640A00000048430000484300008F
:1003C000A04100002042F43DA042F43DA04296E34B
:1003D000C7430080DE43D0070000D0070000640060
:1003E0000000102700003B20003A0A0020204D3674
:1003F000303320002055004C0046696C616D656EFD
:1004000074206C6F61642F756E6C6F6164206C6515
:100410006E677468733A0020204D393030204B00ED
:100420004C696E65617220416476616E63653A0065
:1004300020204D3835312058005A2D50726F62659A
:10044000204F666673657400204400204900202018
:100450004D33303420500020440020490020204DEE
:100460003330312050005049442073657474696EF4
:1004700067733A00204A002020473239205720492C
:100480000020204D3432302053004175746F2042DB
:100490006564204C6576656C696E673A0020204D76
:1004A000323036205800486F6D65206F6666736580
:1004B000743A0020530020204D3230352042004154
:1004C0006476616E6365643A20423C6D696E5F7369
:1004D00065676D656E745F74696D655F75733E20E9
:1004E000533C6D696E5F66656564726174653E203C
:1004F000543C6D696E5F74726176656C5F666565AC
:1005000064726174653E20583C6D61785F785F6A03
:1005100065726B3E20593C6D61785F795F6A6572E8
:100520006B3E205A3C6D61785F7A5F6A65726B3E04
:1005300020453C6D61785F655F6A65726B3E0020A7
:10054000520020204D323034205000416363656CEE
:1005500065726174696F6E2028756E6974732F738C
:1005600032293A20503C7072696E745F6163636532
:100570006C3E20523C726574726163745F616363A8
:10058000656C3E20543C74726176656C5F61636398
:10059000656C3E0020204D3230312058004D61788E
:1005A000696D756D20416363656C65726174696F17
:1005B0006E2028756E6974732F7332293A002020DB
:1005C0004D3230332058004D6178696D756D20666D
:1005D00065656472617465732028756E6974732F24
:1005E00073293A0053746570732070657220756EBC
:1005F00069743A0020440020204D323030205300EE
:100600002044697361626C65640A0046696C616DBF
:10061000656E742073657474696E67733A00202880
:100620006D6D29002020473231202020203B2055AD
:100630006E69747320696E206D6D0024F4D430509F
:10064000C38E20C2A24017828B7011127A910D8145
:100650006CD90AA861E108C7586607615143061EB4
:100660004B5D05C145A7041A411104093D9803716A
:100670003931034036DB0265339102D430540280B5
:100680002E1D02632CEE01752AC501B028A00110B1
:100690002781018F2564012B244B01E0223401AC1A
:1006A000211F018D200D01801FFC00841EED00978D
:1006B0001DDF00B81CD200E61BC600201BBC006476
:1006C0001AB200B219A8000A19A0006A189900D13C
:1006D00017910040178B00B516840031167E00B3C9
:1006E0001579003A157300C7146F0058146A00EEAC
:1006F0001366008813630025135E00C7125B006C4D
:1007000012570015125400C111510070114F0021F1
:10071000114B00D61049008D1047004610440002CE
:10072000104200C00F4000800F3E00420F3C000608
:100730000F3B00CB0E3800930E37005C0E350027C0
:100740000E3400F30D3200C10D3100900D30006009
:100750000D2E00320D2D00050D2C00D90C2B00AEF6
:100760000C2900850C29005C0C2700350C27000E95
:100770000C2600E80B2400C40B2400A00B23007DF2
:100780000B23005A0B2100390B2100180B2000F815
:100790000A1F00D90A1E00BB0A1E009D0A1D008008
:1007A0000A1D00630A1C00470A1B002C0A1B0011CB
:1007B0000A1A00F7091A00DD091900C4091900AB6B
:1007C000091900920917007B091800630917004CEA
:1007D00009160036091600200916000A091500F549
:1007E000081500E0081400CC081400B8081400A490
:1007F000081400900813007D0812006B08130058BD
:1008000008120046081200340811002308110012D3
:1008100008110001081100F0071000E0071000D0D7
:10082000071000C0071000B0070F00A107100091CB
:10083000070E0083070F0074070F0065070E0057AF
:10084000070E0049070E003B070D002E070E002083
:10085000070D0013070D0006070D00F9060C00ED4B
:10086000060D00E0060C00D4060C00C8060C00BC07
:10087000060C00B0060C00A4060B0099060C008DB7
:10088000060B0082060B0077060B006C060B00615E
:10089000060A0057060B004C060A0042060A0038FA
:1008A000060A002E060A0024060A001A060A00108C
:1008B00006090007060A00FD050900F4050900EB1A
:1008C000050900E2050900D9050900D0050900C79E
:1008D000050900BE050900B5050800AD050800A51D
:1008E0000509009C050800940508008C0508008493
:1008F0000508007C050800740508006C0507006504
:100900000508005D050700560508004E050700476D
:100910000507004005080038050700310507002AD3
:10092000050700230507001C050600160507000F34
:100930000507000805060002050700FB040600F590
:10094000040700EE040600E8040600E2040700DBEA
:10095000040600D5040600CF040600C9040600C33F
:10096000040600BD040600B7040600B1040500AC8F
:10097000040600A6040600A00405009B04060095DA
:10098000040500900406008A040500850405008023
:100990000406007A04050075040500700405006B68
:1009A00004050066040500610405005C04050057A9
:1009B000040500520405004D0405004804050043E9
:1009C0000405003E0404003A040500350405003027
:1009D0000404002C04050027040400230405001E61
:1009E0000404001A04040016040500110404000D98
:1009F000040400090405000404040000040400FCCD
:100A0000030400F8030400F4030400F0030400EC02
:100A1000030400E8030400E4030400E0030400DC32
:100A2000030400D8030400D4030400D0030400CC62
:100A3000030400C8030300C503030024F404D92001
:100A40001BC40C5C0E9804C4095F0265077101F4B5
:100A500005F900FB04B30048048700C1036900588E
:100A600003550003034500BE023A008402310053DF
:100A7000022A002902250004022000E4011C00C80B
:100A8000011900AF011700980114008401130071CF
:100A90000110006101100051010E0043010D0036EC
:100AA000010B002B010B0020010B00150109000CAC
:100AB00001090003010800FB000800F3000800EB37
:100AC000000700E4000600DE000600D8000600D2A1
:100AD000000600CC000500C7000500C2000500BDEF
:100AE000000400B9000400B5000400B1000400AD2A
:100AF000000400A9000400A5000300A20003009F59
:100B00000004009B0003009800030095000200937E
:100B1000000300900003008D0002008B000300889A
:100B20000002008600020084000300810002007FB2
:100B30000002007D0002007B0002007900020077C5
:100B400000010076000200740002007200010071D2
:100B50000002006F0002006D0001006C0002006ADC
:100B600000010069000200670001006600010065E5
:100B700000010064000200620001006100010060E9
:100B80000001005F0002005D0001005C0001005BED
:100B90000001005A000100590001005800010057EF
:100BA00000010056000100550001005400010053EF
:100BB00000000053000100520001005100010050EC
:100BC0000001004F0001004E0000004E0001004DEA
:100BD0000001004C0001004B0000004B0001004AE6
:100BE00000010049000100480000004800010047E2
:100BF00000010046000000460001004500000045DD
:100C000000010044000100430000004300010042D5
:100C100000000042000100410000004100010040CE
:100C20000001003F0000003F0001003E0000003EC8
:100C30000001003D0000003D0001003C0000003CC0
:100C40000000003C0001003B0000003B0001003AB6
:100C50000000003A000100390000003900010038AE
:100C600000000038000000380001003700000037A5
:100C7000000100360000003600000036000100359B
:100C80000000003500000035000100340000003491
:100C90000000003400010033000000330000003386
:100CA000000100320000003200000032000100317B
:100CB0000000003100000031000100300000003071
:100CC000000000300001002F0000002F0000002F66
:100CD0000000002F0001002E0000002E0000002E5A
:100CE0000001002D0000002D0000002D0000002D4F
:100CF0000001002C0000002C0000002C0000002C43
:100D00000001002B0000002B0000002B0000002B36
:100D10000001002A0000002A0000002A0000002A2A
:100D2000000100290000002900000029000000291E
:100D30000000002900010028000000280000002811
:100D40000000002800000028000100270000002704
:100D500000000027000000270000002700010026F7
:100D600000000026000000260000002600000026EB
:100D700000010025000000250000002500000025DE
:100D800000000025000000250001002400000024D0
:100D900000000024000000240000002400010023C3
:100DA00000000023000000230000002300000023B7
:100DB00000000023000000230001002200000022A8
:100DC000000000220000002200000022000000229B
:100DD000000100210000002100000021000000218E
:100DE000000000210000002100000021000100207F
:100DF0000000002000000020000000200000002073
:100E00000000002000000020000000200001001F62
:100E10000000001F0000001F0000001F0000001F56
:100E20000000001F0000001F0001001E0000001E47
:100E30000000001E0000001E000000C23100001C67
:100E4000260000F4190000D80F0000EB080000C0D5
:100E5000040000750200004001000020436F756E21
:100E60007420583A0000626564002C207379737412
:100E7000656D2073746F70706564212048656174BE
:100E800065725F49443A20004845495A454E20451D
:100E900052464F4C474C4F530048656174696E672A
:100EA000206661696C6564002008204E49434854FF
:100EB00020455252454943485400546865726D615B
:100EC0006C2052756E6177617900200820C39C42C6
:100ED000455253434852495454454E004D4158548D
:100EE000454D50207472696767657265640020081B
:100EF00020554E54455253434852495454454E0090
:100F00004D494E54454D502074726967676572654E
:100F10006400202F002042403A0020403A00205731
:100F20003A0020573A002053004D3130362050000F
:100F3000496E76616C696420657874727564657257
:100F40000A0070012C0190012701B0012201C001AB
:100F50001D01F00118011002130130020E016002A0
:100F6000090190020401C002FF000003FA004003DF
:100F7000F5008003F000D003EB002004E6007004CD
:100F8000E100E004DC004005D700C005D2004006C7
:100F9000CD00D006C8008007C3003008BE00F008AE
:100FA000B900C009B400B00AAF00B00BAA00D00C61
:100FB000A500000EA000500F9B00C010960050121C
:100FC000910000148C00C0158700B0178200B01982
:100FD0007D00D01B7800001E730040206E00902220
:100FE0006900F024640040275F0090295A00E02B3C
:100FF0005500102E500020304B0010324600E033D8
:10100000410090353C001037370070383200A0396D
:101010002D00B03A2800A03B2300603C1E00103D8C
:101020001900903D1400103E0F00703E0A00C03EB3
:101030000500003F0000403FFBFF803FF6FFC03F40
:10104000F1FF2020506C616E6E65724275666665B8
:101050007242797465733A20002046726565204DAE
:10106000656D6F72793A2000436F6D70696C6564CD
:101070003A2046656220323520323032340A002070
:101080004C61737420557064617465643A20323029
:1010900032302D30392D3232207C20417574686F0A
:1010A000723A20284865696D7765726B652C20530C
:1010B00069646577696E646572205831290A003267
:1010C0002E302E362E310A004D61726C696E002072
:1010D000536F6674776172652052657365740A0098
:1010E000205761746368646F672052657365740A82
:1010F000002042726F776E206F75742052657365A1
:10110000740A002045787465726E616C20526573B4
:1011100065740A00506F77657255700A00737461C8
:1011200072740A00205A3A0020593A0020583A00B6
:10113000656E6473746F7073206869743A20000080
:10114000002100240027002A002D00300033000178
:10115000010000040107010A010000220025002807
:10116000002B002E003100340002010000050108B0
:10117000010B01000020002300260029002C002F75
:101180000032000001000003010601090105050508
:1011900005070508080808020202020A0A080804EE
:1011A000040404010101010101010103030303031C
:1011B000030303040707070C0C0C0C0C0C0C0C02AB
:1011C00002020206060606060606060B0B0B0B0BB2
:1011D0000B0B0B01021020200808102040102040AB
:1011E00080020102010804020101020408102040EB
:1011F0008080402010080402018004020180402009
:101200001008040201080402010102040810204031
:1012100080010204081020408000000A0B02090C23
:101220000D0E08070304010000000000000000008C
:1012300000000000000000000000000000000000AE
:10124000000000000012111000000000000000006B
:101250000000000000000000000000000000006F1F
:101260006B002E0A002028302D31302900207661B5
:101270006C7565206F7574206F662072616E67658E
:1012800000416476616E6365204B3D00290A0020B1
:10129000746F20003F5A206F7574206F6620726152
:1012A0006E6765202800290A0020746F20003F59CE
:1012B000206F7574206F662072616E676520282D1F
:1012C00000290A0020746F20003F58206F75742099
:1012D0006F662072616E676520282D0050726F6204
:1012E00065204F6666736574205800454550524F1F
:1012F0004D204F4B0A00486F6D65766572736174BF
:101300007A20616B74697600546F6F206661722079
:1013100066726F6D207265666572656E63652070BA
:101320006F696E740A0000000000000000000000F9
:1013300000004D34323120696E636F7272656374E0
:1013400020706172616D6574657220757361676587
:101350000A004D65736820706F696E74206F757434
:10136000206F662072616E67650A006469730065AC
:101370006E0043290A0061626C656420286D696E05
:101380002074656D702000436F6C64206578747202
:101390007564657320617265200020643A002069DD
:1013A0003A0020703A0020643A0020693A00207028
:1013B0003A00496E76616C69642065787472756470
:1013C00065720A0050726F6265204F6666736574BD
:1013D000205A0050726F6265204F666673657420F4
:1013E0005A003A200020536572766F2000206F75F6
:1013F00074206F662072616E67650A0053657276AD
:101400006F200020466C6F773A200046523A004F1A
:101410004646004F4E0020580020204D61783A206B
:1014200000200020204D696E3A2000536F66742022
:10143000656E6473746F70733A20005741524E4961
:101440004E4721204C6F77205A204A65726B206DE1
:101450006179206C65616420746F20756E77616EB0
:10146000746564207061757365732E0A00205400E2
:10147000205200416363656C65726174696F6E3AF6
:101480002050002F2F2000417274696C6C657279B6
:10149000205369646577696E646572205831204F06
:1014A00046462E0042657474206BC3BC686C742E73
:1014B0002E2E0042657474206865697A742E2E2E73
:1014C000004D3131332053006F66660050024B02ED
:1014D00044023D022F0244454255473A006F6B00DB
:1014E00050726F7465637465642050696E0A0049B8
:1014F0006E76616C69642050696E204D6F64650A78
:10150000002569730025696D2025697300256968C8
:101510002025696D20256973002569642025696887
:101520002025696D20256973002569792025696466
:10153000202569682025696D20256973005072692E
:101540006E742074696D653A20004D6F746F72651A
:101550006E20616E6765736368616C746574004DBD
:10156000302053746F70004D312053746F700043FE
:101570006F6E74696E7565004D65736820706F6974
:101580006E74206F7574206F662072616E67650AD5
:1015900000205A3A200020593A2000426564205821
:1015A0003A2000000048420000484200008040000D
:1015B000009643000096430000C843FFFFFF5A20F7
:1015C00050726F62652050617374204265640A0036
:1015D0005A2D536F6E6465206175C39F6572686193
:1015E0006C620057617274656E2E2E2E0047322F8A
:1015F00047332062616420706172616D6574657249
:10160000730A0050726F62696E67204661696C658B
:10161000640A0050726F62696E6720676573636861
:1016200065697465727400205A3A200020593A2086
:101630000042656420583A200020746F6F206C6F60
:101640006E6720657874727573696F6E207072654D
:1016500076656E7465640A0020636F6C642065783B
:1016600074727573696F6E2070726576656E7465DD
:10167000640A00220A00556E6B6E6F776E20636FEE
:101680006D6D616E643A202200204500205A0020D2
:101690005900204D393220580020453A00205A3A4E
:1016A0000020593A00583A00706F7765726F66668D
:1016B000005072696E7465722068616C7465642E86
:1016C000206B696C6C28292063616C6C6564210A4D
:1016D00000554E4B4E4F574E2053544154450047F2
:1016E000434F44455F494E464F004C43445F504191
:1016F0005553455F524553554D450046494C414D64
:10170000454E545F52554E4F55545F434F4E5449CA
:101710004E55450046494C414D454E545F52554E3D
:101720004F5554004D38373620526573706F6E64D4
:10173000696E672050524F4D50545F004D32340057
:101740004572726F722077726974696E6720746F68
:1017500020454550524F4D210A00363726033C3D67
:10176000380E2E303E1224221E1A1C180A07430877
:10177000090708440001414E474548414C54454E35
:10178000005072696E7465722073746F7070656456
:101790002064756520746F206572726F72732E20DD
:1017A00046697820746865206572726F7220616E78
:1017B0006420757365204D39393920746F20726546
:1017C00073746172742E202854656D706572617433
:1017D0007572652069732072657365742E20536578
:1017E0007420697420616674657220726573746117
:1017F0007274696E67290A004E6F20436865636BD7
:1018000073756D2077697468206C696E65206E75DC
:101810006D6265722C204C617374204C696E653A60
:101820002000636865636B73756D206D69736D610E
:101830007463682C204C617374204C696E653A2087
:10184000004C696E65204E756D626572206973206B
:101850006E6F74204C617374204C696E65204E75F8
:101860006D6265722B312C204C617374204C696E53
:10187000653A20004D313130002121204B494C4C3C
:101880002063617573656420627920746F6F206DC9
:1018900075636820696E6163746976652074696D2B
:1018A00065202D2063757272656E7420636F6D6D97
:1018B000616E643A2000627573793A2070617573C5
:1018C000656420666F7220696E7075740A006275B7
:1018D00073793A2070617573656420666F72207544
:1018E0007365720A00627573793A2070726F63656E
:1018F0007373696E670A00414E474548414C544531
:101900004E005072696E7465722073746F707065EA
:10191000642064756520746F206572726F72732E17
:101920002046697820746865206572726F72206144
:101930006E6420757365204D39393920746F2072BB
:101940006573746172742E202854656D70657261C0
:10195000747572652069732072657365742E2053E7
:101960006574206974206166746572207265737491
:10197000617274696E67290A006563686F3A004591
:1019800072726F723A0021212053544F50206361CC
:101990006C6C65642062656361757365206F662099
:1019A000424C546F756368206572726F72202D20EF
:1019B000726573746172742077697468204D393967
:1019C000390A0021212053544F502063616C6C650B
:1019D000642062656361757365206F6620424C54B4
:1019E0006F756368206572726F72202D2072657347
:1019F000746172742077697468204D3939390A002E
:101A00002F2F616374696F6E3A006E6F7469666937
:101A1000636174696F6E20006E6F746966696361DB
:101A200074696F6E2000626567696E006275747418
:101A30006F6E00656E640070726F6D70745F00731E
:101A4000686F770050757267654D6F726500506101
:101A50007573656400486F74656E6420746F6F20E1
:101A6000636F6C640A0042696C696E656172204C38
:101A70006576656C696E6720477269643A0A00573B
:101A8000616974696E6720666F722068656174753C
:101A9000702E0A00473236207665726C617373656A
:101AA0006E003F53706563696669656420582C5900
:101AB00020636F6F7264696E617465206F75742046
:101AC0006F6620626F756E64732E0A003F2852297C
:101AD00065706561742076616C7565206E6F742029
:101AE000706C61757369626C653B206D75737420F1
:101AF0006265206174206C6561737420312E0A0068
:101B00003F2852296570656174206D757374206279
:101B10006520737065636966696564207768656EC2
:101B2000206E6F74207573696E6720616E204C4360
:101B3000442E0A003F537065636966696564206ED0
:101B40006F7A7A6C652074656D70657261747572F8
:101B500065206E6F7420706C61757369626C652EA0
:101B60000A003F5370656369666965642066696C45
:101B7000616D656E742073697A65206E6F74207074
:101B80006C61757369626C652E0A003F5370656302
:101B90006966696564207072696D65206C656E6741
:101BA0007468206E6F7420706C61757369626C6507
:101BB0002E0A003F5072696D65206C656E6774680F
:101BC000206D757374206265207370656369666942
:101BD0006564207768656E206E6F74207573696E1A
:101BE0006720616E204C43442E0A003F53706563AA
:101BF0006966696564206E6F7A7A6C652073697AAC
:101C000065206E6F7420706C61757369626C652EEF
:101C10000A003F52657472616374696F6E204D757E
:101C20006C7469706C696572206D7573742062657F
:101C3000207370656369666965642E0A003F53709E
:101C4000656369666965642052657472616374696D
:101C50006F6E204D756C7469706C696572206E6F63
:101C60007420706C61757369626C652E0A003F5355
:101C70007065636966696564206C61796572206866
:101C80006569676874206E6F7420706C6175736924
:101C9000626C652E0A0043292E0A003F537065636B
:101CA0006966696564206265642074656D7065723B
:101CB0006174757265206E6F7420706C61757369E4
:101CC000626C65202834302D0047323620737461F1
:101CD0007274696E672E2E2E0A004F46460A004621
:101CE0006164652048656967687420004265642006
:101CF0004C6576656C696E6720004661696C656449
:101D000020746F20656E61626C6520426564204CB2
:101D10006576656C696E670A00496E76616C696408
:101D2000206D6573682E0A002E0A002F0050726F16
:101D300062696E67206D65736820706F696E7420CC
:101D400000202844525952554E290047323920412B
:101D500075746F20426564204C6576656C696E67AA
:101D6000003F20284C2C522C462C4229206F7574A1
:101D7000206F6620626F756E64732E0A003F2856CE
:101D8000296572626F7365206C6576656C20696D7C
:101D9000706C61757369626C652028302D34292E52
:101DA0000A00426164205A2076616C75650A004E13
:101DB0006F2062696C696E65617220677269640A7E
:101DC0000046696E6973686564210A003A207A3AB0
:101DD0002000206F662000476F696E6720746F3A9D
:101DE00020580043570A00206469723A0020616E4F
:101DF000676C653A0053746172742072616469752E
:101E0000733A00506F736974696F6E696E672074FE
:101E100068652070726F62652E2E2E0A003F4C6539
:101E20006773206F66206D6F76656D656E742069CF
:101E30006D706C61757369626C652028302D313569
:101E4000292E0A003F2028582C5929206F7574200C
:101E50006F6620626F756E64732E0A0050726F6237
:101E600065206F7574206F6620626F756E647300F5
:101E70003F53616D706C652073697A65206E6F7475
:101E800020706C61757369626C652028342D353063
:101E9000292E0A004D3438205A2D50726F62652069
:101EA0005265706561746162696C6974792054650A
:101EB00073740A003F2856296572626F7365206C3F
:101EC0006576656C20696D706C61757369626C65AF
:101ED0002028302D34292E0A005374616E646172FB
:101EE0006420446576696174696F6E3A20002052FF
:101EF000616E67653A2000204D61783A2000204DE0
:101F0000696E3A2000205369676D613A20004D6583
:101F1000616E3A20004C6F61642046696C616D65AA
:101F20006E74205400496E736572742066696C612A
:101F30006D656E7420616E642073656E64204D3132
:101F400030380A00726573756D656400526573758B
:101F50006D696E6700496E736572742066696C61A5
:101F60006D656E7420616E642073656E64204D3102
:101F700030380A0052656865617420446F6E6500F0
:101F800045726E657574206175666865692E202ED0
:101F90002E2E0045726E65757420617566686569E0
:101FA0007A656E004865697A756E672054696D655B
:101FB0006F75740053656E64204D31303820746F36
:101FC0002068656174206E6F7A7A6C650A0044C37C
:101FD000BC73652067657061726B740070617573A6
:101FE000656400486F74656E6420746F6F20636F62
:101FF0006C640A004469736D697373005061757392
:10200000650020496E76616C69642065787472752C
:102010006465722000526573656E643A2000436106
:10202000703A007D002C7A3A002C793A007D2C6DB4
:1020300061783A7B783A002C7A3A002C793A007D24
:102040007D2C776F726B3A7B6D696E3A7B783A00C4
:102050002C7A3A002C793A007D2C6D61783A7B78A5
:102060003A002C7A3A002C793A00617265613A7B29
:1020700066756C6C3A7B6D696E3A7B783A004348C2
:10208000414D4245525F54454D5045524154555281
:102090004500424142595354455050494E47004132
:1020A000524353004D4F54494F4E5F4D4F4445539B
:1020B00000544845524D414C5F50524F5445435493
:1020C000494F4E004C4F4E475F46494C454E414D9F
:1020D00045004155544F5245504F52545F53445F51
:1020E00053544154555300534443415244005052B9
:1020F0004F4D50545F535550504F525400454D452D
:102100005247454E43595F50415253455200434157
:1021100053455F4C494748545F4252494748544EE3
:1021200045535300544F47474C455F4C494748542B
:102130005300534F4654574152455F504F574552F5
:10214000004255494C445F50455243454E54004C63
:102150004556454C494E475F44415441005A5F50F3
:10216000524F42450052554E4F5554004155544F21
:102170004C4556454C005052494E545F4A4F420020
:1021800050524F4752455353004155544F524550BA
:102190004F52545F54454D5000564F4C554D455489
:1021A00052494300454550524F4D0042494E41521D
:1021B000595F46494C455F5452414E534645520083
:1021C00053455249414C5F584F4E5F584F46460069
:1021D0004649524D574152455F4E414D453A4D613A
:1021E000726C696E20322E302E362E314865696D44
:1021F0005765726B652D312E31202846656220327D
:102200003520323032342031363A35343A353329BC
:1022100020534F555243455F434F44455F55524C01
:102220003A68747470733A2F2F6769746875622EF8
:10223000636F6D2F4D61726C696E4669726D776167
:1022400072652F4D61726C696E2050524F544F432E
:102250004F4C5F56455253494F4E3A312E30204D28
:10226000414348494E455F545950453A417274695B
:102270006C6C657279205369646577696E64657208
:102280002058312045585452554445525F434F55CC
:102290004E543A3120555549443A6365646532617C
:1022A00032662D343161322D343734382D39623174
:1022B000322D6335356336326633363766660A004B
:1022C00023646566696E652044454641554C545FFC
:1022D0000000626564004B6420004B6920004B7075
:1022E0002000504944204175746F74756E652066F6
:1022F000696E69736865642120507574207468651F
:10230000206C617374204B702C204B6920616E64CB
:10231000204B6420636F6E7374616E7473206672F9
:102320006F6D2062656C6F7720696E746F20436FEC
:102330006E66696775726174696F6E2E680A005007
:102340004944204175746F74756E65206661696CCF
:102350006564212074696D656F75740A0050494485
:10236000204175746F74756E65206661696C656473
:10237000212054656D706572617475726520746F8B
:102380006F20686967680A00204B643A2000204B80
:10239000693A2000204B703A20000A20436C617398
:1023A00073696320504944200A00204B643A20009E
:1023B000204B693A2000204B703A20000A204E6FD3
:1023C000206F76657273686F6F740A002054753AD7
:1023D0002000204B753A2000206D61783A200020C3
:1023E0006D696E3A200020643A20002062696173B2
:1023F0003A2000504944204175746F74756E652011
:1024000073746172740A00504944204175746F748A
:10241000756E65206661696C6564212054656D7018
:102420006572617475726520746F6F206869676882
:102430000A00504944204175746F74756E650050F0
:102440004944204175746F74756E65206661696CCE
:1024500065642120426164206578747275646572D8
:10246000206E756D6265720A006F70656E00545261
:1024700049474745524544003A20007A5F6D696EEE
:1024800000795F6D696E00785F6D696E00526570EE
:102490006F7274696E6720656E6473746F702073F9
:1024A00074617475730A0020746F6F206C6F6E67AF
:1024B00020657874727573696F6E207072657665C9
:1024C0006E7465640A0020636F6C642065787472B2
:1024D0007573696F6E2070726576656E7465640AD7
:1024E00000566F7268657220257325732573206806
:1024F0006F6D656E005761726E696E673A20486F46
:102500006D696E672042756D702044697669736FDE
:1025100072203C20310A000202040000A0400000AA
:10252000A0400000004082B811241FBECFEFD1E2CE
:10253000DEBFCDBF00E00CBF12E0A0E0B2E0E8E5F6
:10254000F3E901E00BBF02C007900D92AE3DB10769
:10255000D9F72EE0AEEDB2E001C01D92AA38B20765
:10256000E1F712E1C4E9D2E100E006C021970109D8
:10257000802FFE010E9477C9C339D10780E0080788
:10258000A9F70E9422B90C94AAC90C9400008150AA
:10259000823108F05AC0E82FF0E08827ED52FD4E56
:1025A0008F4F0C9477C9F312F712E512EB12EF126A
:1025B0002513FA12001304130A130E13121318131F
:1025C0001C132513201326132A13809180008F7764
:1025D000809380000895809180008F7DF9CF809155
:1025E0008000877FF5CF84B58F7784BD089584B54B
:1025F0008F7DFBCF8091B0008F778093B0000895DE
:102600008091B0008F7DF9CF809190008F7780937B
:1026100090000895809190008F7DF9CF8091900077
:10262000877FF5CF8091A0008F778093A0000895D9
:102630008091A0008F7DF9CF8091A000877FF5CF9A
:10264000809120018F77809320010895809120014F
:102650008F7DF9CF80912001877FF5CFCF93DF93D6
:10266000282F30E0F901E75EFD4E8491F901ED522B
:10267000FE4ED491F901E357FE4EC491CC23A1F054
:1026800081110E94C712EC2FF0E0EE0FFF1FED58F2
:10269000FE4EA591B491EC91ED2381E090E009F418
:1026A00080E0DF91CF91089580E090E0FACF3FB7CE
:1026B000F8948091790C90917A0CA0917B0CB09158
:1026C0007C0C26B5A89B05C02F3F19F00196A11DD3
:1026D000B11D3FBFBA2FA92F982F8827BC01CD016C
:1026E000620F711D811D911D42E0660F771F881FCB
:1026F000991F4A95D1F708958F929F92AF92BF92FA
:10270000CF92DF92EF92FF920F931F93CF93DF93BD
:10271000B0E4A0E06A2F70E0AB014B0F511D55955E
:102720004795411119C0E4E4FFE065917491072ECB
:10273000000C880B990B0E94F5C1DF91CF911F917E
:102740000F91FF90EF90DF90CF90BF90AF909F9050
:102750008F900895B42FE0CFA41711F0B41303C0E5
:10276000E0E4F0E1E2CF9A0121503109220F331F5A
:10277000220F331FF901EE5BF04FE590F490F90161
:10278000EA5BF04FC591D4918E159F051CF3A42FE1
:10279000C817D9070CF4BECFF901EC5BF04F0591D7
:1027A0001491F901E85BF04FC590D490BC016E190B
:1027B0007F09072E000C880B990B0E94F5C14B0175
:1027C0005C01B601601B710B072E000C880B990B86
:1027D0000E94F5C19B01AC01C501B4010E9454C225
:1027E0004B015C01BE016E197F09072E000C880B9E
:1027F000990B0E94F5C19B01AC01C501B4010E9477
:102800003FC76B017C01B801110F880B990B0E9427
:10281000F5C19B01AC01C701B6010E9445C68DCF31
:10282000BC012091E30B3091E40B4091E30B5091FC
:10283000E40B2417350731F481E02617370709F038
:1028400080E008959A01F1CF80910C0380FF1EC0B3
:1028500089988FEF8093910B80910C03869580FF70
:1028600018C08F988FEF8093920B80910C03869500
:10287000869580FF11C080910B01809582708093B6
:102880000901439A8FEF8093930B0895899A81E011
:10289000E1CF8F9A81E0E7CF80910B018270809326
:1028A0000901439881E0EFCFAF92BF92CF92DF92C0
:1028B000EF92FF920F931F93CF93DF93C9E9DAE072
:1028C00007E81CE089EAA82E8AE0B82EC12CD12C9A
:1028D0007601C39469917991899199910E94F3C18C
:1028E000288939894A895B890E9454C20E94B8C7E5
:1028F000F80161937193819391938F01C616D70666
:10290000E806F90610F46B017C01AC16BD0611F760
:102910006FEF7FEFCB01A70196010E94E1C52093E5
:10292000970C3093980C4093990C50939A0CDF912C
:10293000CF911F910F91FF90EF90DF90CF90BF90BC
:10294000AF9008958F929F92AF92BF92CF92DF92F5
:10295000EF92FF920F931F93CF93DF93B0E4A0E029
:102960006A2F70E0AB014B0F511D559547954111F2
:1029700019C0E4E4FFE065917491072E000C880B08
:10298000990B0E94F5C1DF91CF911F910F91FF909C
:10299000EF90DF90CF90BF90AF909F908F90089571
:1029A000B42FE0CF4A1711F0B41303C0E0E4F0E114
:1029B000E2CF9A0121503109220F331F220F331F1A
:1029C000F901EE5BF04FE590F490F901EA5BF04F0E
:1029D000C591D4918E159F051CF3A42FC817D90754
:1029E0000CF4BECFF901EC5BF04F05911491F901A5
:1029F000E85BF04FC590D490BC016E197F09072E9B
:102A0000000C880B990B0E94F5C14B015C01B601CB
:102A1000601B710B072E000C880B990B0E94F5C1EF
:102A20009B01AC01C501B4010E9454C24B015C0181
:102A3000BE016E197F09072E000C880B990B0E94AE
:102A4000F5C19B01AC01C501B4010E943FC76B01F8
:102A50007C01B801110F880B990B0E94F5C19B01F5
:102A6000AC01C701B6010E9445C68DCF8823A9F1EC
:102A70000E94A1824091AD0A5091AE0A6091AF0AC6
:102A80007091B00A82E996E10E9469874091B10A8B
:102A90005091B20A6091B30A7091B40A8FE896E13E
:102AA0000E9469874091B50A5091B60A6091B70AB1
:102AB0007091B80A8CE896E10E9469874091B90A42
:102AC0005091BA0A6091BB0A7091BC0A89E896E1FC
:102AD0000E9469878AE00C94728180E20E94728170
:102AE000C9CF0F931F93CF93811113C0C42F8B01B4
:102AF0000E94A18286EE93E00E947981C8010E9423
:102B00007981CC2331F08AE0CF911F910F910C9401
:102B10007281CF911F910F9108950E94A1826091BF
:102B2000970A7091980A86E796E10E948A8283E765
:102B300096E10C9479819091760B8091770B9813A4
:102B400008C08091940A9091950A892B11F40C94F5
:102B50000E7F80E00E945995EECFAF92BF92CF9248
:102B6000DF92EF92FF920F931F93CF93C82F11E044
:102B70001827811102C00E94A18284E296E00E947F
:102B800079818EE196E00E9479818AE00E947281CB
:102B90008AE00E947281C11114C00E94A18286EE57
:102BA00093E00E9479818BE096E00E947981809188
:102BB000EE04882309F4DCC28AE00E9472810E943C
:102BC000A1826091EE0470E087EF95E00E94AA85F3
:102BD0004091EA045091EB046091EC047091ED0493
:102BE00084EF95E00E9469878AE00E94728141E04B
:102BF00064EE75E08C2F0E947115812F0E943615AE
:102C000041E067EC75E08C2F0E947115C11102C084
:102C10000E94A1824091BD0A5091BE0A6091BF0AF4
:102C20007091C00A8EEB95E00E9469874091C10ABD
:102C30005091C20A6091C30A7091C40A8FE896E16C
:102C40000E9469874091C50A5091C60A6091C70ADF
:102C50007091C80A8CE896E10E9469874091C90A80
:102C60005091CA0A6091CB0A7091CC0A89E896E12A
:102C70000E9469878AE00E94728141E06DE975E0F7
:102C80008C2F0E947115C11102C00E94A182609117
:102C9000990A70919A0A80919B0A90919C0A0E94CD
:102CA000F3C1AB01BC0184E995E00E9469876091A2
:102CB0009D0A70919E0A80919F0A9091A00A0E949D
:102CC000F3C1AB01BC018FE896E10E946987609176
:102CD000A10A7091A20A8091A30A9091A40A0E946D
:102CE000F3C1AB01BC018CE896E10E946987609159
:102CF000A50A7091A60A8091A70A9091A80A0E943D
:102D0000F3C1AB01BC0189E896E10E9469878AE0C2
:102D10000E94728141E06BE475E08C2F0E94711576
:102D2000C11102C00E94A1824091CD0A5091CE0AE9
:102D30006091CF0A7091D00A82E495E00E94698781
:102D40004091D10A5091D20A6091D30A7091D40A6D
:102D50008FE395E00E9469874091D50A5091D60A89
:102D60006091D70A7091D80A8DE694E10E94698734
:102D70008AE00E94728141E06FEB74E08C2F0E9428
:102D80007115C11102C00E94A1826091A90A7091BF
:102D9000AA0A8091AB0A9091AC0A0E94F3C1AB01E0
:102DA000BC0186EB94E00E9469874091D90A50915A
:102DB000DA0A6091DB0A7091DC0A83EB94E00E94EE
:102DC00069874091DD0A5091DE0A6091DF0A7091B7
:102DD000E00A8DE694E10E94698740919B0C509136
:102DE0009C0C60919D0C70919E0C86E194E10E9478
:102DF000698740919F0C5091A00C6091A10C70913B
:102E0000A20C8FE896E10E9469874091A30C509133
:102E1000A40C6091A50C7091A60C8CE896E10E9420
:102E200069874091A70C5091A80C6091A90C7091F2
:102E3000AA0C89E896E10E9469878AE00E94728163
:102E400041E066EA74E08C2F0E947115C11102C046
:102E50000E94A1824091DE045091DF046091E00461
:102E60007091E1048DE994E00E9469874091E20449
:102E70005091E3046091E4047091E5048FE896E1D9
:102E80000E9469874091E6045091E7046091E8044C
:102E90007091E9048CE896E10E9469878AE00E94BB
:102EA000728141E06AE874E08C2F0E947115C111B3
:102EB00002C00E94A1826091E90A70E081E894E07A
:102EC0000E94AA854091EA0A5091EB0A6091EC0AAF
:102ED0007091ED0A8CE896E10E9469878AE00E9471
:102EE000728120E030E0A90160911705709118050A
:102EF0008091190590911A050E94EEC18823C1F1B5
:102F00008AE9C82E84E0D82E10E000E05601F12CAA
:102F1000E12CC11102C00E94A182B70187E794E0B1
:102F20000E94AA85B80184E794E00E94AA858CE8F3
:102F300096E10E947981F50160817181828193819E
:102F400045E00E94E0858AE00E947281FFEFEF1A5F
:102F5000FF0A80E1A80EB11CE4E0EE16F104C9F608
:102F60000F5F1F4FF4E0CF0ED11C0430110571F636
:102F700041E066E674E08C2F0E947115C11102C019
:102F80000E94A18240911B0B50911C0B60911D0B64
:102F900070911E0B8DE594E00E9469872CEA35EC58
:102FA00047E25EE360911F0B7091200B8091210B33
:102FB0009091220B0E943FC7AB01BC018AE594E0CF
:102FC0000E9469872CEA35EC47E25EE36091230BAF
:102FD0007091240B8091250B9091260B0E9454C276
:102FE000AB01BC0187E594E00E9469878AE00E94FA
:102FF0007281C11102C00E94A182409105055091C9
:10300000060560910705709108058EE494E00E9422
:1030100069872CEA35EC47E25EE36091090570911F
:103020000A0580910B0590910C050E943FC7AB01EA
:10303000BC018BE494E00E9469872CEA35EC47E2FE
:103040005EE360910D0570910E0580910F059091E2
:1030500010050E9454C2AB01BC0188E494E00E94B8
:1030600069878AE00E94728140E069E374E08C2FF6
:103070000E947115C1110AC08EE196E00E9479810B
:1030800089EE93E00E9479810E94A18240915605C9
:1030900050915705609158057091590580E394E06F
:1030A0000E94698740915A0550915B0560915C05CB
:1030B00070915D058FE896E10E94698740915E05F9
:1030C00050915F0560916005709161058CE896E113
:1030D0000E9469878AE00E94728141E060E274E0A8
:1030E0008C2F0E947115C11102C00E94A1824091D3
:1030F000AC0C5091AD0C6091AE0C7091AF0C87E1AF
:1031000094E00E9469878AE00E94728141E069EF41
:1031100073E08C2F0E947115C11102C00E94A18220
:103120008CEE93E00E94798140919604509197042F
:10313000609198047091990487EF93E00E946987E9
:10314000409192045091930460919404709195047D
:1031500084EF93E00E9469878AE0CF911F910F91DD
:10316000FF90EF90DF90CF90BF90AF900C94728162
:1031700080E096E00E94798122CD8F929F92AF925B
:10318000BF92DF92EF92FF920F931F93CF93DF9343
:10319000CDB7DEB7CA58D1090FB6F894DEBF0FBE5F
:1031A000CDBFC358DF4F188219821A821B82CD57B8
:1031B000D0408091D0029091D102A091D202B091E2
:1031C000D302CF57DF4F88839983AA83BB83C1582B
:1031D000D040CB57DF4F19821882C558D04084E6C3
:1031E00090E0C957DF4F99838883C758D040109229
:1031F0008C0B9E012B573F4F44E050E0BE016F57B0
:103200007F4FCE0189579F4F0E94C984C957DF4F16
:1032100088819981C758D0400296C957DF4F99835A
:103220008883C758D040CB57DF4F19821882C558C2
:10323000D04081E0C657DF4F8883CA58D0409E01F6
:103240002B573F4F41E050E0BE0166577F4FCE0104
:1032500089579F4F0E94C9849E012B573F4F48E4D6
:1032600050E069E97AE0CE0189579F4F0E94C984F6
:103270009E012B573F4F40E150E06BE97CE0CE01CF
:1032800089579F4F0E94C9848AE097EDA3EABCE367
:10329000C358DF4F88839983AA83BB83CD57D0401F
:1032A0009E012B573F4F44E050E0BE0163587F4FD3
:1032B000CE0189579F4F0E94C9849E012B573F4FD3
:1032C0004CE050E06EED74E0CE0189579F4F0E94B4
:1032D000C9847E018DE6E80EF11C8FEFD7018C9337
:1032E0009E012B573F4F41E050E0B701CE01895777
:1032F0009F4F0E94C98419821A821B821C829E01E0
:103300002B573F4F44E050E08E010F5F1F4FB80135
:10331000CE0189579F4F0E94C9848091EA0A9091FB
:10332000EB0AA091EC0AB091ED0A89839A83AB83F2
:10333000BC839E012B573F4F44E050E0B801CE01C3
:1033400089579F4F0E94C984C358DF4F1882198242
:103350001A821B82CD57D04083E0F7018083898396
:103360009E012B573F4F44E050E0BE0163587F4F12
:10337000CE0189579F4F0E94C9849E012B573F4F12
:1033800041E050E0B701CE0189579F4F0E94C984A8
:103390009E012B573F4F41E050E0B801CE018957C5
:1033A0009F4F0E94C9843AE0D32EDA949E012B5796
:1033B0003F4FDD2059F044E050E0BE0163587F4F9D
:1033C000CE0189579F4F0E94C984EFCF4CE050E057
:1033D00066E575E0CE0189579F4F0E94C984C358A6
:1033E000DF4F188219821A821B82CD57D0402AE003
:1033F000D22EDA94DD2071F09E012B573F4F44E02E
:1034000050E0BE0163587F4FCE0189579F4F0E9405
:10341000C984EFCF84E08983D7018C939E012B5719
:103420003F4F41E050E0B801CE0189579F4F0E94C5
:10343000C9849E012B573F4F41E050E0B701CE01B8
:1034400089579F4F0E94C9849E012B573F4F48E0E8
:1034500050E067E175E0CE0189579F4F0E94C98413
:103460009E012B573F4F48E050E06FE175E0CE01E1
:1034700089579F4F0E94C9849E012B573F4F40E4BC
:1034800050E06AE974E0CE0189579F4F0E94C984D9
:1034900019828FEFF70180839E012B573F4F41E048
:1034A00050E0B801CE0189579F4F0E94C9849E0108
:1034B0002B573F4F41E050E0B701CE0189579F4F56
:1034C0000E94C9849E012B573F4F44E050E06AEAB6
:1034D00072E0CE0189579F4F0E94C9848091DE021D
:1034E00089839E012B573F4F41E050E0B801CE0148
:1034F00089579F4F0E94C984198A1A8A1B8A1C8A7D
:1035000080E090E0A0E8BFE38D879E87AF87B88B0F
:1035100080911B0B90911C0BA0911D0BB0911E0B69
:1035200089839A83AB83BC832CEA35EC47E25EE364
:1035300060911F0B7091200B8091210B9091220BB9
:103540000E943FC76D837E838F8398872CEA35EC7A
:1035500047E25EE36091230B7091240B8091250B71
:103560009091260B0E9454C269877A878B879C872B
:103570009E012B573F4F44E150E0B801CE018957DF
:103580009F4F0E94C98484E190E09A8389839E01C1
:103590002B573F4F42E050E0B801CE0189579F4F73
:1035A0000E94C9848091050590910605A0910705A8
:1035B000B091080589839A83AB83BC832CEA35ECF0
:1035C00047E25EE36091090570910A0580910B0561
:1035D00090910C050E943FC76D837E838F839887EF
:1035E0002CEA35EC47E25EE360910D0570910E0523
:1035F00080910F05909110050E9454C269877A87C7
:103600008B879C879E012B573F4F4CE050E0B801C1
:10361000CE0189579F4F0E94C98419829E012B5762
:103620003F4F41E050E0B801CE0189579F4F0E94C3
:10363000C9848FE790E09A8389839E012B573F4F7F
:1036400042E050E0B801CE0189579F4F0E94C984E3
:1036500085E0EDE6F2E0D80101900D928A95E1F760
:103660009E012B573F4F45E050E0B801CE018957EE
:103670009F4F0E94C98419829E012B573F4F41E002
:1036800050E0B801CE0189579F4F0E94C98480E263
:10369000E2E7F2E0D80101900D928A95E1F79E01F0
:1036A0002B573F4F40E250E0B801CE0189579F4F62
:1036B0000E94C984D7011C929E012B573F4F41E0C5
:1036C00050E0B701CE0189579F4F0E94C9849E01E7
:1036D0002B573F4F41E050E06EEE74E0CE0189572A
:1036E0009F4F0E94C9849E012B573F4F44E050E0FA
:1036F0006AEE74E0CE0189579F4F0E94C984C35877
:10370000DF4F188219821A821B82CD57D0409E014A
:103710002B573F4F44E050E0BE0163587F4FCE012E
:1037200089579F4F0E94C98480E2F80111928A95BF
:10373000E9F79E012B573F4F40E250E0B801CE0120
:1037400089579F4F0E94C984FE01F99688E0DF01E6
:103750001D928A95E9F744E650E060E070E0498305
:103760005A836B837C834D835E836F83788783E08A
:1037700090E0A0E0B0E089879A87AB87BC874D874F
:103780005E876F87788B498B5A8B6B8B7C8B8D8B8D
:103790009E8BAF8BB88F898F9A8FAB8FBC8F8D8F9D
:1037A0009E8FAF8FB8A38EE190E0A0E0B0E089A338
:1037B0009AA3ABA3BCA38DA39EA3AFA3B8A789A7CD
:1037C0009AA7ABA7BCA78DA79EA7AFA7B8AB89AB9D
:1037D0009AABABABBCAB8DAB9EABAFABB8AF9E0106
:1037E0002B573F4F40E450E0B801CE0189579F4F1F
:1037F0000E94C98480E1D82EF8018D2D11928A95FE
:10380000E9F79E012B573F4F40E150E0B801CE0150
:1038100089579F4F0E94C984D8011D92DA94E9F715
:103820009E012B573F4F40E150E0B801CE01895730
:103830009F4F0E94C9849E012B573F4F44E050E0A8
:103840006CEA7CE0CE0189579F4F0E94C9849CE0BE
:10385000D92EF8018D2D11928A95E9F79E012B57EB
:103860003F4F4CE050E0B801CE0189579F4F0E9476
:10387000C9848CE6D8011D928A95E9F79E012B57E1
:103880003F4F4CE650E0B801CE0189579F4F0E9450
:10389000C9849E012B573F4F4CE050E060E87BE02D
:1038A000CE0189579F4F0E94C9849E012B573F4FDD
:1038B00048E050E062E974E0CE0189579F4F0E94D2
:1038C000C984F7011192DA94E9F7C757DF4F1882DC
:1038D000C958D04080E090E0A0E4B0E4ED968CAF11
:1038E0009DAFAEAFBFAFED979E012B573F4F4CE062
:1038F00050E0B701CE0189579F4F0E94C9849E01B5
:103900002B573F4F41E050E0BE0167577F4FCE013C
:1039100089579F4F0E94C9849E012B573F4F44E017
:1039200050E0BE0167587F4FCE0189579F4F0E94DC
:10393000C984D0908C0BD11059C0C957DF4F088172
:103940001981C758D04004561109CB57DF4F8881E1
:103950009981C558D040D7018D939C9384E690E01F
:10396000C957DF4F99838883C758D0409E012B5792
:103970003F4F44E050E06EEA72E0CE0189579F4F1E
:103980000E94C9849E012B573F4F42E050E0B7018F
:10399000CE0189579F4F0E94C9840E94A182B8011D
:1039A0008FE892E00E948185F70180809180B12CA0
:1039B000A12C82E892E00E9479814AE0C501B4011D
:1039C0000E941D858FE792E00E947981013A1240A2
:1039D00041F00E949D8281EA92E00E947981DD247B
:1039E000D39480918C0B8D2980938C0B80918C0BC0
:1039F000811104C08DE692E00E947A8290918C0B36
:103A000081E08927C657DF4F0FB6F894DEBF0FBE9F
:103A1000CDBFDF91CF911F910F91FF90EF90DF907D
:103A2000BF90AF909F908F9008951F93CF93DF9397
:103A300000D000D01F921F92CDB7DEB769837A8382
:103A40008B839C832D833E834F8358870E941083F2
:103A5000882359F081E028960FB6F894DEBF0FBE98
:103A6000CDBFDF91CF911F910895BE016B5F7F4F56
:103A7000CE0101960E94C87180919004182F147095
:103A800082FD0CC01092900482E00E94E7710E94B7
:103A9000797281E01123F9F280E0DDCF0E94C182CA
:103AA000882381F3D7CFCF93DF938091760B9091CA
:103AB000770B891B80958F7019F40E945995F5CF6B
:103AC0008091760B8F5F8F70A091760B92E5A99F06
:103AD000D0011124FD01EC58FA4FEF0119929A958B
:103AE000E9F798E09083A757BA4F90E1EAEDFCE040
:103AF00001900D929A95E1F72091760B9091770BBA
:103B0000291303C094E69093730B8093760BDF9197
:103B1000CF910C944A70CF93DF93EC010E949D8269
:103B2000CE010E94798160910C0B70910D0B8091F8
:103B30000E0B90910F0B0E948E850E947A870E9437
:103B400045950196E1F70E944E8910920B0B109259
:103B50000A0BDF91CF910895FC01DB018C9120814C
:103B60003181382798E0A901220F331F57FD05C086
:103B70009150C9F7318320830895B1E22B27B0E13A
:103B80003B27F6CF4F925F926F927F928F929F92D8
:103B9000AF92BF92CF92DF92EF92FF920F931F935B
:103BA000CF93DF93CAEFDAE04C845D846E847F8428
:103BB0000EEE1AE0F80124813581468157816C812F
:103BC0007D818E819F810E9445C64B015C01F80179
:103BD0002085318542855385688579858A859B85D1
:103BE0000E9445C66B017C01F80120813181428130
:103BF0005381688179818A819B810E9445C6AB018E
:103C0000BC0185EA96E10E946987B501A40181EAB9
:103C100096E10E946987B701A6018DE996E10E94AD
:103C20006987B301A20189E996E1DF91CF911F91E4
:103C30000F91FF90EF90DF90CF90BF90AF909F904B
:103C40008F907F906F905F904F900C946987CF9288
:103C5000DF92EF92FF92CF936B017C01AC019B014D
:103C60006091EA0A7091EB0A8091EC0A9091ED0A5A
:103C70000E94EEC1882309F457C0C091E90A80E090
:103C80000E94EF7D20E030E0A901C701B6010E944B
:103C9000A5C818161CF0C12CD12C7601C092EA0AD6
:103CA000D092EB0AE092EC0AF092ED0A2DEB37E3AA
:103CB00046E855EBC701B6010E94A5C887FD0AC0BA
:103CC0002DEB37E346E855E3C701B6010E94EEC18C
:103CD000181634F5A701960160E070E080E89FE3D4
:103CE0000E943FC76093E50A7093E60A8093E70A53
:103CF0009093E80A80EF9FEFA9E7B4EC8093E10A84
:103D00009093E20AA093E30AB093E40ACC2361F013
:103D100081E0CF91FF90EF90DF90CF900C94EF7DFA
:103D200060E070E0CB01DECFCF91FF90EF90DF90AD
:103D3000CF9008952F923F924F925F926F927F9211
:103D40008F929F92AF92BF92CF92DF92EF92FF92AB
:103D50000F931F93CF93DF93CDB7DEB7C357D1092E
:103D60000FB6F894DEBF0FBECDBF4B015A016901FB
:103D70006196FFAEEEAE6197DC012D913D914D91C4
:103D80005C916D962CAF3DAF4EAF5FAF6D972091BC
:103D9000AD0A3091AE0A4091AF0A5091B00A6D96CB
:103DA0006CAD7DAD8EAD9FAD6D970E9454C20E94EB
:103DB000B2C8AB966CAF7DAF8EAF9FAFAB97D4015F
:103DC0002D913D914D915C91A1962CAF3DAF4EAFA1
:103DD0005FAFA1972091B10A3091B20A4091B30A26
:103DE0005091B40AA1966CAD7DAD8EAD9FADA197FB
:103DF0000E9454C20E94B2C8AF966CAF7DAF8EAF26
:103E00009FAFAF97D5012D913D914D915C91A596B6
:103E10002CAF3DAF4EAF5FAFA5972091B50A309163
:103E2000B60A4091B70A5091B80AA5966CAD7DAD1F
:103E30008EAD9FADA5970E9454C20E94B2C8E39672
:103E40006CAF7DAF8EAF9FAFE397D6012D913D91C3
:103E50004D915C9165962CAF3DAF4EAF5FAF6597CE
:103E60002091B90A3091BA0A4091BB0A5091BC0A1C
:103E700065966CAD7DAD8EAD9FAD65970E9454C2C9
:103E80000E94B2C869966CAF7DAF8EAF9FAF699745
:103E90008091960A83FF1CC069962CAD3DAD4EAD56
:103EA0005FAD69972093E60C3093E70C4093E80CE4
:103EB0005093E90C65968CAD9DADAEADBFAD6597E9
:103EC0008093D60C9093D70CA093D80CB093D90CB8
:103ED0008091940A9091950A892B11F00C940F2EE1
:103EE000D8013C9011962C9011971296BC91BBAFC3
:103EF000F801F381FFAF8091760B9091770B891BCE
:103F000080958F7019F40E945995F5CF2091760B0A
:103F1000E4962FAFE4978091760B482F50E058A796
:103F20004FA352E5859FC0011124DC01AC58BA4F64
:103F30002F96BFAFAEAF2F978091DA0C9091DB0C2C
:103F4000A091DC0CB091DD0CAB964CAC5DAC6EACD2
:103F50007FACAB97481A590A6A0A7B0A8091DE0C3B
:103F60009091DF0CA091E00CB091E10CAF968CAC7D
:103F70009DACAEACBFACAF97881A990AAA0ABB0A2F
:103F80008091E20C9091E30CA091E40CB091E50CCF
:103F9000E3962CAD3DAD4EAD5FADE397281B390BDD
:103FA0004A0B5B0B2FA738AB49AB5AAB8091E60CA1
:103FB0009091E70CA091E80CB091E90C69962CADBA
:103FC0003DAD4EAD5FAD6997281B390B4A0B5B0BBE
:103FD0002BA33CA34DA35EA3232B242B252B09F459
:103FE00092C080917305811137C06091140B70915C
:103FF000150B8091160B9091170B0E94B1C7209161
:104000005502309156026217730734F569968CADEC
:104010009DADAEADBFAD69978093E60C9093E70C74
:10402000A093E80CB093E90C65962CAD3DAD4EAD78
:104030005FAD65972093D60C3093D70C4093D80C86
:104040005093D90C0E94A18288E596E10E94798163
:104050001BA21CA21DA21EA26BA17CA18DA19EA1D0
:104060000E94F5C1209151023091520240915302B9
:10407000509154020E9454C26B017C0120E030E058
:10408000A9010E94A5C887FF04C0F7FAF094F7F8C9
:10409000F09420E030E048E453E46091B90A709174
:1040A000BA0A8091BB0A9091BC0A0E9454C2A7012F
:1040B00096010E94EEC187FF26C069968CAD9DAD2A
:1040C000AEADBFAD69978093E60C9093E70CA093DB
:1040D000E80CB093E90C65962CAD3DAD4EAD5FADEF
:1040E00065972093D60C3093D70C4093D80C5093FF
:1040F000D90C0E94A18289E396E10E9479811BA2DA
:104100001CA21DA21EA2D301C2018827B7FD839560
:104110009927AA27BB27182FB7FC12608FA598A94B
:10412000A9A9BAA9B7FD14602BA13CA14DA15EA11C
:1041300057FD18606BA17CA18DA19EA10E94F5C1C5
:1041400020915102309152024091530250915402F9
:104150000E9454C26B017C0120E030E0A9010E9462
:10416000A5C887FF85C7C701B601905820E030E099
:1041700040E05FE30E9445C60E94B8C76BA77CA7DA
:104180008DA79EA782E54FA158A5849FF001859F2A
:10419000F00D1124EC58FA4F108215AB8FA598A999
:1041A000A9A9BAA929968CAF9DAFAEAFBFAF299789
:1041B000B7FF0DC0B095A095909581959F4FAF4FDB
:1041C000BF4F29968CAF9DAFAEAFBFAF29978FAAD7
:1041D00098AEA9AEBAAEB7FE0BC022273327A9010D
:1041E000281939094A095B092FAB38AF49AF5AAFD3
:1041F0004BAA5CAA6DAA7EAA77FE0BC088279927D6
:10420000DC0184199509A609B7098BAB9CABADAB52
:10421000BEAB2BA93CA94DA95EA92F96AEADBFADF3
:104220002F9755962D933D934D935C9358972FA9B7
:1042300038AD49AD5AAD59962D933D934D935C934E
:104240005C9729962CAD3DAD4EAD5FAD29975D963F
:104250002D933D934D935C939097C301B2010E94BF
:10426000F5C1209163053091640540916505509139
:1042700066050E9454C22D966CAF7DAF8EAF9FAF86
:104280002D97698B7A8B8B8B9C8BC501B4010E9417
:10429000F5C12091670530916805409169055091FD
:1042A0006A050E9454C225966CAF7DAF8EAF9FAF5A
:1042B00025976D8B7E8B8F8B988F6FA578A989A999
:1042C0009AA90E94F5C120916B0530916C0540912F
:1042D0006D0550916E050E9454C24B015C01898EA0
:1042E0009A8EAB8EBC8E20916F05309170054091F7
:1042F000710550917205C701B6010E9454C26B014D
:104300007C01CD8EDE8EEF8EF8A22BA93CA94DA9A3
:104310005EA926303105410551050CF0ACC68FA9C8
:1043200098ADA9ADBAAD0697A105B1050CF0A3C62D
:1043300029962CAD3DAD4EAD5FAD299726303105A8
:10434000410551050CF097C620E030E0A901C701F6
:10435000B6010E94A5C887FF04C0F7FAF094F7F8E9
:10436000F09482E54FA158A5849F8001859F100D90
:1043700011240C581A4F20E030E0A901C701B60102
:104380000E9445C6D8011D966D937D938D939C9395
:10439000509782E5AFA1B8A58A9FF0018B9FF00DE1
:1043A0001124EC58FA4F2BA53CA54DA55EA521A3E1
:1043B00032A343A354A329968CAD9DADAEADBFAD42
:1043C00029972FA938AD49AD5AAD82179307A40795
:1043D000B50710F4DA01C9012BA93CA94DA95EA9C2
:1043E00082179307A407B50710F4DA01C9012BA5BA
:1043F0003CA54DA55EA582179307A407B50710F449
:10440000DA01C90122E54FA158A5249FF001259F9B
:10441000F00D1124EC58FA4F85A396A3A7A3B0A7DB
:104420000697A105B10510F40C94F22DEF5AFF4F39
:1044300080916205808345284628472809F05F98C7
:1044400082E5AFA1B8A58A9FF0018B9FF00D1124E2
:10445000EC58FA4F818D928DA38DB48D892B8A2BC8
:104460008B2B09F08A9882E52FA138A5829FF00155
:10447000839FF00D1124EC58FA4F858D968DA78DF2
:10448000B0A1892B8A2B8B2B31F080910801817090
:104490008093060147988BA59CA5ADA5BEA5892B49
:1044A0008A2B8B2B11F40C94112E8091AB0C88234A
:1044B00019F081508093AB0C129880E28093AB0C82
:1044C000E090D90AF090DA0A0091DB0A1091DC0A38
:1044D0009701A801632D722D8BAD9FAD0E94EEC197
:1044E00087FD04C0E32CF22C0BAD1FAD82E5AFA11C
:1044F000B8A58A9FF0018B9FF00D1124EC58FA4F5C
:1045000085849684A784B088A501940160E070E05A
:1045100080E89FE30E943FC76BAF7CAF8DAF9EAF3B
:104520009701A8010E9454C26B017C018091760B17
:104530009091740B891B8F708FAFA701960160E07B
:1045400074E284E799E40E943FC70E94B2C82B013D
:104550003C018FAD8250863090F56091A90A709130
:10456000AA0A8091AB0A9091AC0A64197509860970
:10457000970916161706180619060CF5660F771F09
:10458000881F991FBFAD2B2F30E050E040E00E9404
:1045900003C6CA01B9010E94F5C10E94B1C7640DEA
:1045A000751D861D971D0E94F5C19B01AC0160E041
:1045B00074E284E799E40E943FC76B017C01A70184
:1045C0009601C501B4010E9454C29B01AC010E9436
:1045D00054C22D966CAF7DAF8EAF9FAF2D9782E505
:1045E000EFA1F8A58E9F80018F9F100D11240C580C
:1045F0001A4F2D962CAD3DAD4EAD5FAD2D97D80128
:1046000011962D933D934D935C93149795962D9110
:104610003D914D915C9198972FA738AB49AB5AAB20
:10462000CA01B9010E94F3C16FAB78AF89AF9AAFED
:104630009B01AC01C701B6010E9454C20E9423C76E
:104640000E94B8C725966CAF7DAF8EAF9FAF259700
:10465000F801EF5BFF4F6083718382839383FE01D8
:104660007196FCABEBAB9E012F5F3F4F27963FAFA0
:104670002EAF27974DEB5AE061965FAF4EAF619733
:10468000CE014D969AA389A3A7963FAF2EAFA797C9
:1046900000E010E020E8222E3FE3332EABA9BCA9B6
:1046A0002D913D914D915D91BCABABABC701B60176
:1046B0000E9454C24B015C01A796EEADFFADA797D7
:1046C00081929192A192B192A796FFAFEEAFA79778
:1046D00020E030E0A9010E94A5C887FF04C0B7FA16
:1046E000B094B7F8B0946196AEADBFAD61974D9000
:1046F0005D906D907D906196BFAFAEAF6197A50163
:104700009401C301B2010E94EEC187FF10C0A50150
:104710009401C301B2010E943FC75B014C019801A3
:10472000A1010E94EEC187FF02C085011401E9A129
:10473000FAA12BA93CA9E217F30709F0AFCF2D8D01
:104740003E8D4F8D58A1C701B6010E9454C26B0126
:104750007C01CD86DE86EF86F88A20E030E0A90174
:104760000E94A5C84601570187FF04C0B7FAB0945C
:10477000B7F8B0944090C90A5090CA0A6090CB0A2A
:104780007090CC0AA5019401C301B2010E94EEC150
:1047900087FF10C0A5019401C301B2010E943FC769
:1047A0005B014C019801A1010E94EEC187FF02C08C
:1047B0008501140120E030E040E85FE3B801C10169
:1047C0000E94EEC187FF66C09801A10169817A81CC
:1047D0008B819C810E9454C269837A838B839C83E2
:1047E0009801A1016D817E818F8198850E9454C2BC
:1047F0006D837E838F8398879801A10169857A856F
:104800008B859C850E9454C269877A878B879C8799
:104810009801A101C701B6010E9454C26D877E872D
:104820008F87988B22E54FA158A5249FC001259F13
:10483000900D1124DC01AC58BA4F7D016D01B1E43B
:10484000CB0ED11C25966CAD7DAD8EAD9FAD259761
:104850000E94F3C19801A1010E9454C20E94B8C7EE
:10486000F60160837183828393839801A101B8016B
:10487000C1010E9454C22D962CAD3DAD4EAD5FAD31
:104880002D970E9454C2D70111966D937D938D93FD
:104890009C9314972FA938AD49AD5AAD6BAD7CAD43
:1048A0008DAD9EAD0E9454C26BAF7CAF8DAF9EAFFD
:1048B00082E5EFA1F8A58E9F80018F9F100D112436
:1048C0000C581A4FD80155962D913D914D915C9100
:1048D00058972BAB3CAB4DAB5EAB232B242B252B3E
:1048E00009F024C459968D919D910D90BC91A02DF5
:1048F000892B8A2B8B2B09F019C4F801858D968D95
:10490000A78DB0A1892B8A2B8B2B09F00FC4209186
:10491000D10A3091D20A4091D30A5091D40A6BAD9A
:104920007CAD8DAD9EAD0E9454C20E9423C70E94F3
:10493000B8C72B013C01D801D6961C9282E54FA145
:1049400058A5849F8001859F100D11240C581A4F83
:10495000F801E35BFF4F4082518262827382C301A0
:10496000B2010E94F3C16B017C012BAD3CAD4DAD9A
:104970005EAD0E943FC76BAF7CAF8DAF9EAFD801DD
:1049800051966D937D938D939C9354972DEB37E3C4
:1049900046E051E4C701B6010E9454C20E94B8C764
:1049A000F80161AB72AB83AB94AB86A9882371F13C
:1049B000FD9620813181428153816091AC0C7091D0
:1049C000AD0C8091AE0C9091AF0C0E9454C22BADF7
:1049D0003CAD4DAD5EAD0E9454C22091B90A3091FC
:1049E000BA0A4091BB0A5091BC0A0E9454C29B0172
:1049F000AC0160E074E284EF99E40E943FC70E943A
:104A0000B8C7D801D8967C936E93D79782E52FA12B
:104A100038A5829FF001839FF00D1124EC58FA4FC6
:104A200081819281A381B4812D968CAF9DAFAEAF71
:104A3000BFAF2D97BC01CD010E94F3C86B017C0173
:104A4000ABE9BCE06196BFAFAEAF619727960EAD04
:104A50001FAD2797005F1F4F2396BFAFAEAF2397C1
:104A600027962EAC3FAC27976BA3DBA68FA7FFAA98
:104A70001BAAD1018D909D90AD90BD901D0120E0AD
:104A800030E0A901C501B4010E94A5C887FF04C098
:104A9000B7FAB094B7F8B0942396EEADFFAD239774
:104AA00061917191819191912396FFAFEEAF239720
:104AB00020E030E0A9010E9445C62B013C01A50180
:104AC00094010E94EEC187FF26C0FBA9FF2309F4D1
:104AD00032C6A3019201B601C7010E9454C22B0144
:104AE0003C012BA13BA54FA55FA9C501B4010E94C4
:104AF00054C29B01AC01C301B2010E94EEC187FF09
:104B00000AC0A5019401C301B2010E943FC76BA373
:104B10007BA78FA79FAB0215130509F0AACF3FAD66
:104B2000332309F459C68090B60C9090B70CA0902E
:104B3000B80CB090B90C2DEB37E346E855E3C5014E
:104B4000B4010E94EEC187FD47C6C501B4010E94B1
:104B5000F3C81B018C019B01AC01B601C7010E9487
:104B6000EEC187FFFDC59101A801B601C7010E94F2
:104B70003FC725966CAF7DAF8EAF9FAF25971601CF
:104B80008701AAEBBCE02196BFAFAEAF2197412CC5
:104B9000512C90E8692E9FE3792E1BAA2196EEAD49
:104BA000FFAD219761917191819191912196FFAF14
:104BB000EEAF219725962CAD3DAD4EAD5FAD25975F
:104BC0000E9454C24B015C012796AEADBFAD279742
:104BD000CD90DD90ED90FD902796BFAFAEAF2797BB
:104BE000BBA9BB2371F0A30192010E9454C24B01E7
:104BF0005C01A3019201C701B6010E9454C26B017E
:104C00007C01A5019401C701B6010E94EEC120E01C
:104C100030E0A90187FFBFC5C701B6010E94A5C842
:104C200018164CF020E030E0A901C501B4010E9443
:104C3000EEC187FFA0C5A7019601C501B4010E947E
:104C400044C66B017C016196EEADFFAD6197619149
:104C50007191819191916196FFAFEEAF619720E0E4
:104C600030E0A9010E9445C64B015C01A7019601F5
:104C70000E94EEC187FF11C0A7019601C501B401D2
:104C80000E943FC79B01AC01C301B2010E9454C204
:104C90002B013C01FBA9FF5FFBAB2AEC3CE021961A
:104CA0004EAD5FAD21972417350709F077CF5BA98B
:104CB000552341F0A3019201B101C8010E9454C2E1
:104CC0001B018C0124EA30E74DE75FE3B101C80125
:104CD0000E9454C26B017C012091830C3091840CA2
:104CE0004091850C5091860C0E94EEC187FF0AC04E
:104CF0002BA13BA54FA55FA9C701B6010E94EEC13C
:104D000087FD6AC58BA19BA5AFA5BFA98093830C26
:104D10009093840CA093850CB093860C22E5AFA1F0
:104D2000B8A52A9FC0012B9F900D1124FC01EC58BF
:104D3000FA4F7F019101A801B101C8010E9454C23C
:104D4000D70119966D937D938D939C931C976BADB2
:104D50007CAD8DAD9EAD90589B01AC010E9445C6C7
:104D60002F96EEADFFAD2F97258536854785508967
:104D70000E9454C29B01AC016BE077ED83E29BE3A0
:104D80000E9444C69B01AC018BE097EDA3E2BBE31C
:104D9000F70185839683A783B08710812D966CAD2C
:104DA0007DAD8EAD9FAD2D970E94EEC118160CF40F
:104DB00018C583E0182B82E52FA138A5829FF0014A
:104DC000839FF00D1124EC58FA4F108380E1FE010F
:104DD0003196AAEBBCE001900D928A95E1F72D96F1
:104DE0008CAD9DADAEADBFAD2D978093B60C9093BD
:104DF000B70CA093B80CB093B90CAB962CAD3DADED
:104E00004EAD5FADAB972093DA0C3093DB0C409343
:104E1000DC0C5093DD0CAF968CAD9DADAEADBFAD4F
:104E2000AF978093DE0C9093DF0CA093E00CB093CF
:104E3000E10CE3962CAD3DAD4EAD5FADE397209315
:104E4000E20C3093E30C4093E40C5093E50C69962C
:104E50008CAD9DADAEADBFAD69978093E60C9093E0
:104E6000E70CA093E80CB093E90C6D962CAD3DAD2A
:104E70004EAD5FAD6D972093CA0C3093CB0C409331
:104E8000CC0C5093CD0CA1968CAD9DADAEADBFAD0D
:104E9000A1978093CE0C9093CF0CA093D00CB0939D
:104EA000D10CA5962CAD3DAD4EAD5FADA597209331
:104EB000D20C3093D30C4093D40C5093D50C659600
:104EC0008CAD9DADAEADBFAD65978093D60C909384
:104ED000D70CA093D80CB093D90C9091760B8091FD
:104EE000770B981303C084E68093730BE4968FAD21
:104EF000E4978F5F8F708093760B8091760B909103
:104F0000750B81508F70891709F41BC51091760BB2
:104F10002090750B8091760B281609F47DC41150F2
:104F20001F70D12CC12C121509F476C4812E912C3E
:104F300092E5989DF001999DF00D1124EC58FA4FDF
:104F4000808183FD66C4F8A7EFA3B1840285A384A2
:104F500034844580568067807084A30192016B2D54
:104F6000702F8A2D932D0E94EEC1811108C0C114AB
:104F7000D10409F46FC0F601808180FF6BC022E587
:104F8000289DF001299DF00D1124EC58FA4F8081E5
:104F900081FD3DC0C114D10409F428C4D601159681
:104FA000CD90DD90ED90FC901897B2E5B89DF001A2
:104FB000B99DF00D1124EC58FA4F618972898389EB
:104FC000948990589B01AC010E9445C6EFA1F8A5B9
:104FD00025853685478550890E9454C29B01AC01C6
:104FE000C701B6010E9444C6D62EC72E8BA39BA72D
:104FF000262F372FAC016B2D702F8A2D932D0E94F9
:10500000EEC187FD04C0BD2C0C2DABA03BA42B2D05
:10501000302F4A2D532DC301B2010E94EEC18823C7
:10502000C9F0F2E5F89DC001F99D900D11249C0195
:105030002C583A4F6901D9018C9181608C938FA1D2
:1050400098A50E941014882309F4D9C3F601808121
:105050008E7F808311501F70822D2090750B281633
:1050600009F4C1C3181709F4D7C38F5F8F70F5CF48
:10507000C701B6017BC86196EEADFFAD6197C080F8
:10508000D180E280F38020E030E0A901C701B601C1
:105090000E94EEC1882379F082E52FA138A5829F76
:1050A000F001839FF00D1124EC58FA4FC586D68687
:1050B000E786F08A6EC92D962CAD3DAD4EAD5FAD45
:1050C0002D97CA01B9010E9454C26B017C0125963B
:1050D0002CAD3DAD4EAD5FAD2597CA01B9010E9423
:1050E00054C29B01AC01C701B6010E9445C66B01C9
:1050F0007C01A5019401C501B4010E9454C29B0129
:10510000AC01C701B6010E9445C60E94F3C822E562
:105110004FA158A5249FF001259FF00D1124EC58B4
:10512000FA4F658776878787908B33C92BA53CA577
:105130004DA55EA5232B242B252B09F42DC12091F1
:10514000CD0A3091CE0A4091CF0A5091D00A6BAD72
:105150007CAD8DAD9EAD0E9454C20E9423C70E94BB
:10516000B8C72B013C018BA59CA5ADA5BEA5892B7D
:105170008A2B8B2B09F12091AC0C3091AD0C409116
:10518000AE0C5091AF0C2BA73CA74DA75EA720E01B
:1051900030E0A9016BA57CA58DA59EA50E94EEC15E
:1051A000882351F08BA19CA1ADA1BEA118161906B0
:1051B0001A061B060CF4F9C082E5AFA1B8A58A9FB8
:1051C000F0018B9FF00D1124EC58FA4F16AA809134
:1051D000970C9091980CA091990CB0919A0C2F96E5
:1051E000EEADFFAD2F97818C928CA38CB48C258D66
:1051F000368D478D50A12BA33CA34DA35EA321A1C7
:1052000032A143A154A12BA73CA74DA75EA72FA570
:1052100038A949A95AA982179307A407B50708F422
:1052200081C18BA99CA9ADA9BEA9892B8A2B8B2BE7
:1052300021F16091870C7091880C8091890C90917C
:105240008A0C6415750586059705B8F40E94D1C5CA
:105250006B017C012BA93CA94DA95EA9C301B20138
:105260000E94D1C5C616D706E806F90630F4C70174
:10527000B6010E94E1C529013A0181149104A104FB
:10528000B10431F160918B0C70918C0C80918D0C7C
:1052900090918E0C6415750586059705C8F42FA5A9
:1052A00038A949A95AA90E94D1C56B017C01A50161
:1052B0009401C301B2010E94D1C5C616D706E80603
:1052C000F90630F4C701B6010E94E1C529013A018F
:1052D0002BA13CA14DA15EA1232B242B252B41F119
:1052E00060918F0C7091900C8091910C9091920C28
:1052F0006415750586059705D8F42FA538A949A921
:105300005AA90E94D1C56B017C012BA13CA14DA1E2
:105310005EA1C301B2010E94D1C5C616D706E80638
:10532000F90630F4C701B6010E94E1C529013A012E
:105330008BA59CA5ADA5BEA5892B8A2B8B2B09F42B
:10534000FDCA6091930C7091940C8091950C909192
:10535000960C641575058605970508F0EFCA2FA50C
:1053600038A949A95AA90E94D1C56B017C012BA576
:105370003CA54DA55EA5C301B2010E94D1C5C616CC
:10538000D706E806F90608F0D9CAC701B6010E9497
:10539000E1C529013A01D2CA2091D50A3091D60A35
:1053A0004091D70A5091D80AD2CE82E5EFA1F8A554
:1053B0008E9F80018F9F100D11240C581A4F81E091
:1053C000D801D6968C932091CA0C3091CB0C409189
:1053D000CC0C5091CD0C6D966CAD7DAD8EAD9FAD6E
:1053E0006D970E9444C66BA37CA38DA39EA32091BE
:1053F000CE0C3091CF0C4091D00C5091D10CA19695
:105400006CAD7DAD8EAD9FADA1970E9444C64B01A2
:105410005C012091D20C3091D30C4091D40C50916E
:10542000D50CA5966CAD7DAD8EAD9FADA5970E94B8
:1054300044C66B017C012BA13CA14DA15EA1CA0118
:10544000B9010E9454C26BA37CA38DA39EA3A501A6
:105450009401C501B4010E9454C29B01AC016BA12F
:105460007CA18DA19EA10E9445C64B015C01A701B4
:105470009601C701B6010E9454C29B01AC01C5014F
:10548000B4010E9445C60E94F3C86B017C012091C3
:10549000D60C3091D70C4091D80C5091D90C659610
:1054A0006CAD7DAD8EAD9FAD65970E9444C6A701E2
:1054B00096010E943FC76B017C01F801FD96C082F6
:1054C000D182E282F38220E030E040E450E40E94A6
:1054D000A5C8181614F4F80179CEA70196016BA59A
:1054E0007CA58DA59EA50E9454C29B01AC01609134
:1054F000A70C7091A80C8091A90C9091AA0C0E9405
:105500003FC72BAD3CAD4DAD5EAD0E9454C20E9475
:10551000B8C7641575058605970508F058CE2B01A8
:105520003C0155CE2BA93CA94DA95EA9232B242BC8
:10553000252B09F43FC06091870C7091880C8091F5
:10554000890C90918A0C641575058605970590F570
:105550000E94F3C12FA938AD49AD5AAD0E9454C283
:105560006B017C016BA97CA98DA99EA90E94F3C146
:105570006FA778AB89AB9AABC301B2010E94F3C1AC
:105580002FA538A949A95AA90E9454C29B01AC0170
:10559000C701B6010E94EEC187FF0CC02FA538A934
:1055A00049A95AA9C701B6010E943FC70E94B8C7BE
:1055B0002B013C0181149104A104B104B9F1609163
:1055C0008B0C70918C0C80918D0C90918E0C6415CD
:1055D00075058605970550F50E94F3C12FA938ADD2
:1055E00049AD5AAD0E9454C26B017C01C501B401A2
:1055F0000E94F3C14B015C01C301B2010E94F3C1DF
:10560000A50194010E9454C29B01AC01C701B601DF
:105610000E94EEC187FF0AC0A5019401C701B6012F
:105620000E943FC70E94B8C72B013C018BA19CA1DF
:10563000ADA1BEA1892B8A2B8B2BC9F160918F0C58
:105640007091900C8091910C9091920C641575055D
:105650008605970560F50E94F3C12FA938AD49ADC5
:105660005AAD0E9454C26B017C016BA17CA18DA13B
:105670009EA10E94F3C14B015C01C301B2010E94D3
:10568000F3C1A50194010E9454C29B01AC01C70162
:10569000B6010E94EEC187FF0AC0A5019401C701AF
:1056A000B6010E943FC70E94B8C72B013C012BA541
:1056B0003CA54DA55EA5232B242B252B09F43EC923
:1056C0006091930C7091940C8091950C9091960C34
:1056D000641575058605970508F030C90E94F3C169
:1056E0002FA938AD49AD5AAD0E9454C26B017C015F
:1056F0006BA57CA58DA59EA50E94F3C14B015C0105
:10570000C301B2010E94F3C1A50194010E9454C2D9
:105710009B01AC01C701B6010E94EEC187FF0EC913
:10572000A5019401C701B6010E943FC70E94B8C7F6
:105730002B013C0103C9A5019401C301B2010E94E0
:105740003FC79B01AC016BA17BA58FA59FA90E94C0
:1057500054C26BA37BA78FA79FAB21E02BABDBC908
:1057600080E090E0A0E8BFE325968CAF9DAFAEAFA0
:10577000BFAF259706CAF7FAF094F7F8F094A7019F
:105780009601C501B4010E94A5C818160CF05BCAA9
:105790007501640158CAC701B6010E94EEC187FDB8
:1057A00009C020E030E0A901C501B4010E94A5C8EC
:1057B00018162CF4A5019401C701B60140CAB7FA26
:1057C000B094B7F8B094A5019401C701B6010E9446
:1057D000EEC187FF38CADCCF2BA03BA40FA51FA9C1
:1057E00091CA81E0E7CACFA0D8A49DCB8BE0C82E98
:1057F00087EDD82E83E2E82E8BE3F82ED6CB8B2DC7
:10580000902FAA2DB32DF60185839683A783B087A9
:1058100021CCD8A6CFA21ECC1091750BD12CC12CB7
:1058200002E58091760B811709F48BC0812E912CB3
:10583000089DC001099D900D11249C012C583A4FE0
:105840001901D9018C91560183FD6FC05901C11412
:10585000D10409F46AC0C6010E941014811165C008
:10586000F601808181FD4CC0D10115964D905D906F
:105870006D907C901897D60115962D913D914D9184
:105880005C9118972FA338A749A75AA7A3019201A3
:105890006FA178A589A59AA50E94EEC187FF30C0A7
:1058A000F601618972898389948990589B01AC01C2
:1058B0000E9445C6D6011D962D913D914D915C915A
:1058C00050970E9454C29B01AC016FA178A589A595
:1058D0009AA50E9444C66B017C01A30192010E941B
:1058E000EEC187FF0DC0F101808181608083C50119
:1058F0000E9410148823E9F0D1018C918E7F8C9343
:10590000089DF001099DF00D1124EC58FA4F2185F6
:1059100032854385548565817681878190850E9493
:10592000EEC1811102C01093750B1F5F1F706501DE
:1059300078CFF101C582D682E782F0861093750B8D
:10594000DFCFD090770B8090760B22E5D81409F446
:10595000BCC08FEF880D8F70289FF0011124EC5888
:10596000FA4F908193FDAFC0312C212C1FA21BA2B6
:1059700010E000E0F12CE12CD81409F4B5C0F2E5F8
:10598000DF9E800111240C581A4FD8018C9183FDA1
:105990009EC015966D917D918D919C9118970E9456
:1059A000F3C8B62EC72EA82E992EE114F10409F4DF
:1059B00088C0F701808180FD04C0D8018C9180FFF0
:1059C00080C0F701808181608083C7010E9410142C
:1059D000811173C0D70111966D917D918D919C912C
:1059E00014970E94F3C86BA77CA78DA79EA79B0165
:1059F000AC0160E070E080E89FE30E943FC72B01AC
:105A00003C01AC019B016B2D7C2D8A2D992D0E94B0
:105A100054C269837A838B839C83232D322D4FA1BB
:105A20005BA1C301B2010E9454C2698B7A8B8B8B3C
:105A30009C8BAE014F5F5F4FBE016F5E7F4FC70112
:105A40000E94326EF70186A98823B9F12091AC0C2F
:105A50003091AD0C4091AE0C5091AF0CFD96608131
:105A60007181828193810E9454C22091B90A309140
:105A7000BA0A4091BB0A5091BC0A0E9454C22B0141
:105A80003C01AC019B016BA57CA58DA59EA50E9448
:105A900054C20E94B8C7D701DA967C936E93D99707
:105AA000A30192016B2D7C2D8A2D992D0E9454C249
:105AB0000E94B8C7F70174AF63AFD7018C918E7F96
:105AC0008C93780108C0882E41CF8D2C4DCFB32CFC
:105AD000C22CAFA09BA0D394BD2DBF70DB2E3B2C5E
